{"abi":[{"type":"constructor","inputs":[{"name":"_aura","type":"address","internalType":"contract Aura"}],"stateMutability":"nonpayable"},{"type":"function","name":"assignDriverToJobId","inputs":[{"name":"driver","type":"address","internalType":"address"},{"name":"jobID","type":"bytes32","internalType":"bytes32"}],"outputs":[],"stateMutability":"nonpayable"},{"type":"function","name":"assignJobToBox","inputs":[{"name":"job","type":"bytes32","internalType":"bytes32"},{"name":"box","type":"uint256","internalType":"uint256"}],"outputs":[],"stateMutability":"nonpayable"},{"type":"function","name":"boxActivate","inputs":[{"name":"driver","type":"address","internalType":"address"},{"name":"box","type":"uint256","internalType":"uint256"}],"outputs":[{"name":"","type":"bool","internalType":"bool"}],"stateMutability":"pure"},{"type":"function","name":"customerHandOff","inputs":[{"name":"","type":"address","internalType":"address"},{"name":"","type":"bytes32","internalType":"bytes32"}],"outputs":[{"name":"","type":"bool","internalType":"bool"}],"stateMutability":"view"},{"type":"function","name":"customerToJobId","inputs":[{"name":"","type":"address","internalType":"address"},{"name":"","type":"uint256","internalType":"uint256"}],"outputs":[{"name":"","type":"bytes32","internalType":"bytes32"}],"stateMutability":"view"},{"type":"function","name":"driverHandOn","inputs":[{"name":"","type":"address","internalType":"address"},{"name":"","type":"bytes32","internalType":"bytes32"}],"outputs":[{"name":"","type":"bool","internalType":"bool"}],"stateMutability":"view"},{"type":"function","name":"driverToJobId","inputs":[{"name":"","type":"address","internalType":"address"},{"name":"","type":"uint256","internalType":"uint256"}],"outputs":[{"name":"","type":"bytes32","internalType":"bytes32"}],"stateMutability":"view"},{"type":"function","name":"generateReward","inputs":[{"name":"id","type":"bytes32","internalType":"bytes32"},{"name":"driver","type":"address","internalType":"address"}],"outputs":[],"stateMutability":"nonpayable"},{"type":"function","name":"handOff","inputs":[{"name":"driver","type":"address","internalType":"address"},{"name":"reciever","type":"address","internalType":"address"},{"name":"id","type":"bytes32","internalType":"bytes32"}],"outputs":[{"name":"","type":"bool","internalType":"bool"}],"stateMutability":"nonpayable"},{"type":"function","name":"handOn","inputs":[{"name":"driver","type":"address","internalType":"address"},{"name":"customer","type":"address","internalType":"address"},{"name":"id","type":"bytes32","internalType":"bytes32"}],"outputs":[{"name":"","type":"bool","internalType":"bool"}],"stateMutability":"nonpayable"},{"type":"function","name":"jobCreation","inputs":[{"name":"customer","type":"address","internalType":"address"},{"name":"reciever","type":"address","internalType":"address"},{"name":"_data","type":"tuple","internalType":"struct locationContract.ParcelData","components":[{"name":"startLocation","type":"tuple","internalType":"struct locationContract.Location","components":[{"name":"lat","type":"string","internalType":"string"},{"name":"lng","type":"string","internalType":"string"}]},{"name":"endLocation","type":"tuple","internalType":"struct locationContract.Location","components":[{"name":"lat","type":"string","internalType":"string"},{"name":"lng","type":"string","internalType":"string"}]},{"name":"startName","type":"string","internalType":"string"},{"name":"endName","type":"string","internalType":"string"}]},{"name":"bounty","type":"uint256","internalType":"uint256"},{"name":"ETA","type":"uint256","internalType":"uint256"}],"outputs":[],"stateMutability":"nonpayable"},{"type":"function","name":"jobIdCounter","inputs":[],"outputs":[{"name":"","type":"uint256","internalType":"uint256"}],"stateMutability":"view"},{"type":"function","name":"jobIdToJourney","inputs":[{"name":"","type":"bytes32","internalType":"bytes32"}],"outputs":[{"name":"parcelData","type":"tuple","internalType":"struct locationContract.ParcelData","components":[{"name":"startLocation","type":"tuple","internalType":"struct locationContract.Location","components":[{"name":"lat","type":"string","internalType":"string"},{"name":"lng","type":"string","internalType":"string"}]},{"name":"endLocation","type":"tuple","internalType":"struct locationContract.Location","components":[{"name":"lat","type":"string","internalType":"string"},{"name":"lng","type":"string","internalType":"string"}]},{"name":"startName","type":"string","internalType":"string"},{"name":"endName","type":"string","internalType":"string"}]},{"name":"jobId","type":"bytes32","internalType":"bytes32"},{"name":"currentStatus","type":"uint8","internalType":"enum locationContract.Status"},{"name":"customer","type":"address","internalType":"address"},{"name":"reciever","type":"address","internalType":"address"},{"name":"driver","type":"address","internalType":"address"},{"name":"journeyStart","type":"uint256","internalType":"uint256"},{"name":"journeyEnd","type":"uint256","internalType":"uint256"},{"name":"bounty","type":"uint256","internalType":"uint256"},{"name":"ETA","type":"uint256","internalType":"uint256"}],"stateMutability":"view"},{"type":"function","name":"numberOfJobsAssigned","inputs":[{"name":"","type":"address","internalType":"address"}],"outputs":[{"name":"","type":"uint256","internalType":"uint256"}],"stateMutability":"view"},{"type":"function","name":"numberOfJobsCreatedForCustomer","inputs":[{"name":"","type":"address","internalType":"address"}],"outputs":[{"name":"","type":"uint256","internalType":"uint256"}],"stateMutability":"view"},{"type":"function","name":"numberOfJobsCreatedForReceiver","inputs":[{"name":"","type":"address","internalType":"address"}],"outputs":[{"name":"","type":"uint256","internalType":"uint256"}],"stateMutability":"view"},{"type":"function","name":"numberToJobID","inputs":[{"name":"","type":"uint256","internalType":"uint256"}],"outputs":[{"name":"","type":"bytes32","internalType":"bytes32"}],"stateMutability":"view"},{"type":"function","name":"packageSign","inputs":[{"name":"driver","type":"address","internalType":"address"},{"name":"customer","type":"address","internalType":"address"},{"name":"id","type":"bytes32","internalType":"bytes32"}],"outputs":[],"stateMutability":"nonpayable"},{"type":"function","name":"receiverToJobId","inputs":[{"name":"","type":"address","internalType":"address"},{"name":"","type":"uint256","internalType":"uint256"}],"outputs":[{"name":"","type":"bytes32","internalType":"bytes32"}],"stateMutability":"view"},{"type":"function","name":"subJourneys","inputs":[{"name":"","type":"uint256","internalType":"uint256"}],"outputs":[{"name":"parcelData","type":"tuple","internalType":"struct locationContract.ParcelData","components":[{"name":"startLocation","type":"tuple","internalType":"struct locationContract.Location","components":[{"name":"lat","type":"string","internalType":"string"},{"name":"lng","type":"string","internalType":"string"}]},{"name":"endLocation","type":"tuple","internalType":"struct locationContract.Location","components":[{"name":"lat","type":"string","internalType":"string"},{"name":"lng","type":"string","internalType":"string"}]},{"name":"startName","type":"string","internalType":"string"},{"name":"endName","type":"string","internalType":"string"}]},{"name":"jobId","type":"bytes32","internalType":"bytes32"},{"name":"currentStatus","type":"uint8","internalType":"enum locationContract.Status"},{"name":"customer","type":"address","internalType":"address"},{"name":"reciever","type":"address","internalType":"address"},{"name":"driver","type":"address","internalType":"address"},{"name":"journeyStart","type":"uint256","internalType":"uint256"},{"name":"journeyEnd","type":"uint256","internalType":"uint256"},{"name":"bounty","type":"uint256","internalType":"uint256"},{"name":"ETA","type":"uint256","internalType":"uint256"}],"stateMutability":"view"},{"type":"event","name":"emitSig","inputs":[{"name":"user","type":"address","indexed":true,"internalType":"address"},{"name":"id","type":"bytes32","indexed":true,"internalType":"bytes32"}],"anonymous":false},{"type":"event","name":"printUint","inputs":[{"name":"value","type":"uint256","indexed":false,"internalType":"uint256"}],"anonymous":false}],"bytecode":{"object":"0x60806040526000600f55348015601457600080fd5b50604051611c5b380380611c5b8339810160408190526031916055565b601080546001600160a01b0319166001600160a01b03929092169190911790556083565b600060208284031215606657600080fd5b81516001600160a01b0381168114607c57600080fd5b9392505050565b611bc9806100926000396000f3fe608060405234801561001057600080fd5b506004361061012c5760003560e01c806375afd241116100ad578063d2a7ad1311610071578063d2a7ad13146102df578063daf0b2c8146102f2578063e004439c14610312578063e023945514610325578063f31e25941461033857600080fd5b806375afd2411461024257806391806ae0146102555780639b21e582146102755780639fa3882f146102a3578063c65af93d146102b657600080fd5b806341f20c7c116100f457806341f20c7c146101c657806347d2dd37146101d95780635492222e146101ee578063575439bb1461021c5780635f4db54e1461022f57600080fd5b80630f5a11ca14610131578063210ff84d1461014d5780632ec314821461017057806330114af51461019057806339173b85146101b0575b600080fd5b61013a600f5481565b6040519081526020015b60405180910390f35b61016061015b366004611479565b610358565b6040519015158152602001610144565b61013a61017e3660046114b5565b60096020526000908152604090205481565b61013a61019e3660046114ce565b60056020526000908152604090205481565b6101606101be3660046114f0565b600192915050565b61013a6101d43660046114f0565b61055c565b6101ec6101e73660046114f0565b61058d565b005b6101606101fc3660046114f0565b600b60209081526000928352604080842090915290825290205460ff1681565b61013a61022a3660046114f0565b6105fb565b61016061023d366004611479565b610617565b61013a6102503660046114f0565b6107f6565b61013a6102633660046114ce565b60076020526000908152604090205481565b6101606102833660046114f0565b600a60209081526000928352604080842090915290825290205460ff1681565b6101ec6102b136600461151a565b610812565b6102c96102c43660046114b5565b610a1d565b6040516101449a999897969594939291906115fb565b6101ec6102ed366004611827565b610e29565b61013a6103003660046114ce565b60046020526000908152604090205481565b6101ec610320366004611479565b61119a565b6102c96103333660046114b5565b6113de565b6101ec610346366004611937565b6000918252600c602052604090912055565b6000818152600860205260408120600901548390859084906001600160a01b0380841691161480156103ab57506000818152600860205260409020600701546001600160a01b0384811661010090920416145b806103d35750600081815260086020819052604090912001546001600160a01b038481169116145b6103f85760405162461bcd60e51b81526004016103ef90611959565b60405180910390fd5b336001600160a01b03841614806104175750336001600160a01b038316145b6104335760405162461bcd60e51b81526004016103ef90611984565b846000808281526008602052604090206007015460ff16600381111561045b5761045b6115c3565b1461049d5760405162461bcd60e51b81526020600482015260126024820152714a6f62206973206e6f742050656e64696e6760701b60448201526064016103ef565b6001600160a01b0387166000908152600a6020908152604080832089845290915290205460ff16151560011480156104fd57506001600160a01b0388166000908152600b6020908152604080832089845290915290205460ff1615156001145b1561054c57600086815260086020908152604080832060078101805460ff1916600190811790915542600a928301556001600160a01b038c168552908352908320928990529190529450610551565b600094505b505050509392505050565b6002602052816000526040600020818154811061057857600080fd5b90600052602060002001600091509150505481565b6001600160a01b0382166000818152600260209081526040808320805460018181018355918552838520018690558584526008835281842060090180546001600160a01b031916861790559383526005909152812080549091906105f29084906119c5565b90915550505050565b6006602052816000526040600020818154811061057857600080fd5b600081600160008281526008602052604090206007015460ff166003811115610642576106426115c3565b146106885760405162461bcd60e51b81526020600482015260166024820152754a6f62206973206e6f7420696e2050726f677265737360501b60448201526064016103ef565b6000838152600860205260409020600901548490869085906001600160a01b0380841691161480156106db57506000818152600860205260409020600701546001600160a01b0384811661010090920416145b806107035750600081815260086020819052604090912001546001600160a01b038481169116145b61071f5760405162461bcd60e51b81526004016103ef90611959565b336001600160a01b038416148061073e5750336001600160a01b038316145b61075a5760405162461bcd60e51b81526004016103ef90611984565b6001600160a01b0387166000908152600a6020908152604080832089845290915290205460ff16151560011480156107ba57506001600160a01b0388166000908152600b6020908152604080832089845290915290205460ff1615156001145b1561054c57600086815260086020526040902060078101805460ff1916600217905542600b909101556107ed8689610812565b60019450610551565b6003602052816000526040600020818154811061057857600080fd5b81600260008281526008602052604090206007015460ff16600381111561083b5761083b6115c3565b1461087c5760405162461bcd60e51b81526020600482015260116024820152704a6f6220697320496e636f6d706c65746560781b60448201526064016103ef565b6000838152600860205260408120600a810154600b9091015461089f91906119de565b90507f75f5e2815b22cabc38a2224bbde1f65300741c8bb05684f90e2e074734eb7c43816040516108d291815260200190565b60405180910390a16000848152600860205260408120600c810154600d9091015483916108fe916119f1565b61091090670de0b6b3a76400006119f1565b61091a9190611a08565b90507f75f5e2815b22cabc38a2224bbde1f65300741c8bb05684f90e2e074734eb7c438160405161094d91815260200190565b60405180910390a160105460405163a9059cbb60e01b81526001600160a01b038681166004830152602482018490529091169063a9059cbb906044016020604051808303816000875af11580156109a8573d6000803e3d6000fd5b505050506040513d601f19601f820116820180604052508101906109cc9190611a2a565b506000858152600860209081526040808320600c81015460079091015461010090046001600160a01b03168452600d9092528220805491929091610a119084906119de565b90915550505050505050565b600e8181548110610a2d57600080fd5b600091825260209091206040805160c08101909152600e909202018054909250829082906080820190839082908290610a6590611a4c565b80601f0160208091040260200160405190810160405280929190818152602001828054610a9190611a4c565b8015610ade5780601f10610ab357610100808354040283529160200191610ade565b820191906000526020600020905b815481529060010190602001808311610ac157829003601f168201915b50505050508152602001600182018054610af790611a4c565b80601f0160208091040260200160405190810160405280929190818152602001828054610b2390611a4c565b8015610b705780601f10610b4557610100808354040283529160200191610b70565b820191906000526020600020905b815481529060010190602001808311610b5357829003601f168201915b505050505081525050815260200160028201604051806040016040529081600082018054610b9d90611a4c565b80601f0160208091040260200160405190810160405280929190818152602001828054610bc990611a4c565b8015610c165780601f10610beb57610100808354040283529160200191610c16565b820191906000526020600020905b815481529060010190602001808311610bf957829003601f168201915b50505050508152602001600182018054610c2f90611a4c565b80601f0160208091040260200160405190810160405280929190818152602001828054610c5b90611a4c565b8015610ca85780601f10610c7d57610100808354040283529160200191610ca8565b820191906000526020600020905b815481529060010190602001808311610c8b57829003601f168201915b5050505050815250508152602001600482018054610cc590611a4c565b80601f0160208091040260200160405190810160405280929190818152602001828054610cf190611a4c565b8015610d3e5780601f10610d1357610100808354040283529160200191610d3e565b820191906000526020600020905b815481529060010190602001808311610d2157829003601f168201915b50505050508152602001600582018054610d5790611a4c565b80601f0160208091040260200160405190810160405280929190818152602001828054610d8390611a4c565b8015610dd05780601f10610da557610100808354040283529160200191610dd0565b820191906000526020600020905b815481529060010190602001808311610db357829003601f168201915b505050919092525050506006820154600783015460088401546009850154600a860154600b870154600c880154600d909801549697959660ff8616966101009096046001600160a01b039081169695811695941693908a565b6010546001600160a01b03166323b872dd8630610e4e86670de0b6b3a76400006119f1565b6040516001600160e01b031960e086901b1681526001600160a01b03938416600482015292909116602483015260448201526064016020604051808303816000875af1158015610ea2573d6000803e3d6000fd5b505050506040513d601f19601f82011682018060405250810190610ec69190611a2a565b506001600160a01b0385166000908152600d602052604081208054849290610eef9084906119c5565b925050819055506000604051806101400160405280858152602001610f12611414565b8152600060208083018290526001600160a01b03808b16604080860191909152908a1660608501526080840183905260a0840183905260c0840183905260e084018890526101009093018690528381015182526008905220815180518051939450849383919082908190610f869082611ad3565b5060208201516001820190610f9b9082611ad3565b5050506020820151805160028301908190610fb69082611ad3565b5060208201516001820190610fcb9082611ad3565b50505060408201516004820190610fe29082611ad3565b5060608201516005820190610ff79082611ad3565b50505060208201516006820155604082015160078201805460ff19166001836003811115611027576110276115c3565b02179055506060820151600782018054610100600160a81b0319166101006001600160a01b0393841681029190911790915560808401516008840180546001600160a01b031990811692851692909217905560a085015160098501805490921690841617905560c0840151600a84015560e0840151600b840155830151600c8084019190915561012090930151600d90920191909155600f5460208481015160009081529381526040808520929092559189168352600490915281208054600192906110f49084906119c5565b90915550506001600160a01b03808716600090815260036020908152604080832085830151815460018181018455928652848620015593891683526007909152812080549091906111469084906119c5565b90915550506001600160a01b03909416600090815260066020908152604080832096820180518854600181018a55988552838520909801979097559551600f54835260099091529490209390935550505050565b6000818152600860205260409020600901548290849083906001600160a01b0380841691161480156111ed57506000818152600860205260409020600701546001600160a01b0384811661010090920416145b806112155750600081815260086020819052604090912001546001600160a01b038481169116145b6112315760405162461bcd60e51b81526004016103ef90611959565b336001600160a01b03841614806112505750336001600160a01b038316145b61126c5760405162461bcd60e51b81526004016103ef90611984565b6001600160a01b03851633036112d3576001600160a01b0385166000818152600a60209081526040808320888452909152808220805460ff19166001179055518692917fe9247524c4b37258acdda748f6d6c3de00c21bbe007405d32404851e082508b391a35b6001600160a01b038616330361133a576001600160a01b0386166000818152600b60209081526040808320888452909152808220805460ff19166001179055518692917fe9247524c4b37258acdda748f6d6c3de00c21bbe007405d32404851e082508b391a35b6001600160a01b0385166000908152600a6020908152604080832087845290915290205460ff161515600114801561139a57506001600160a01b0386166000908152600b6020908152604080832087845290915290205460ff1615156001145b156113d65760405184906001600160a01b038816907fe9247524c4b37258acdda748f6d6c3de00c21bbe007405d32404851e082508b390600090a35b505050505050565b60086020526000908152604090819020815160c081019092528054909190829082906080820190839082908290610a6590611a4c565b60006001600f600082825461142991906119c5565b9182905550604051611442925060200190815260200190565b60405160208183030381529060405280519060200120905090565b80356001600160a01b038116811461147457600080fd5b919050565b60008060006060848603121561148e57600080fd5b6114978461145d565b92506114a56020850161145d565b9150604084013590509250925092565b6000602082840312156114c757600080fd5b5035919050565b6000602082840312156114e057600080fd5b6114e98261145d565b9392505050565b6000806040838503121561150357600080fd5b61150c8361145d565b946020939093013593505050565b6000806040838503121561152d57600080fd5b8235915061153d6020840161145d565b90509250929050565b6000815180845260005b8181101561156c57602081850181015186830182015201611550565b506000602082860101526020601f19601f83011685010191505092915050565b60008151604084526115a16040850182611546565b9050602083015184820360208601526115ba8282611546565b95945050505050565b634e487b7160e01b600052602160045260246000fd5b600481106115f757634e487b7160e01b600052602160045260246000fd5b9052565b60006101408083528c516080828501526116196101c085018261158c565b91505060208d015161013f19808584030161016086015261163a838361158c565b925060408f0151915080858403016101808601526116588383611546565b925060608f0151915080858403016101a0860152506116778282611546565b925050508a602083015261168e604083018b6115d9565b6001600160a01b03988916606083015296881660808201529490961660a085015260c084019290925260e083015261010082015261012001919091529392505050565b634e487b7160e01b600052604160045260246000fd5b6040516080810167ffffffffffffffff8111828210171561170a5761170a6116d1565b60405290565b600082601f83011261172157600080fd5b813567ffffffffffffffff8082111561173c5761173c6116d1565b604051601f8301601f19908116603f01168101908282118183101715611764576117646116d1565b8160405283815286602085880101111561177d57600080fd5b836020870160208301376000602085830101528094505050505092915050565b6000604082840312156117af57600080fd5b6040516040810167ffffffffffffffff82821081831117156117d3576117d36116d1565b8160405282935084359150808211156117eb57600080fd5b6117f786838701611710565b8352602085013591508082111561180d57600080fd5b5061181a85828601611710565b6020830152505092915050565b600080600080600060a0868803121561183f57600080fd5b6118488661145d565b94506118566020870161145d565b9350604086013567ffffffffffffffff8082111561187357600080fd5b908701906080828a03121561188757600080fd5b61188f6116e7565b82358281111561189e57600080fd5b6118aa8b82860161179d565b8252506020830135828111156118bf57600080fd5b6118cb8b82860161179d565b6020830152506040830135828111156118e357600080fd5b6118ef8b828601611710565b60408301525060608301358281111561190757600080fd5b6119138b828601611710565b60608301525080955050505060608601359150608086013590509295509295909350565b6000806040838503121561194a57600080fd5b50508035926020909101359150565b602080825260119082015270576173206e6f7420636f7272656374203160781b604082015260600190565b6020808252601190820152702bb0b9903737ba1031b7b93932b1ba101960791b604082015260600190565b634e487b7160e01b600052601160045260246000fd5b808201808211156119d8576119d86119af565b92915050565b818103818111156119d8576119d86119af565b80820281158282048414176119d8576119d86119af565b600082611a2557634e487b7160e01b600052601260045260246000fd5b500490565b600060208284031215611a3c57600080fd5b815180151581146114e957600080fd5b600181811c90821680611a6057607f821691505b602082108103611a8057634e487b7160e01b600052602260045260246000fd5b50919050565b601f821115611ace576000816000526020600020601f850160051c81016020861015611aaf5750805b601f850160051c820191505b818110156113d657828155600101611abb565b505050565b815167ffffffffffffffff811115611aed57611aed6116d1565b611b0181611afb8454611a4c565b84611a86565b602080601f831160018114611b365760008415611b1e5750858301515b600019600386901b1c1916600185901b1785556113d6565b600085815260208120601f198616915b82811015611b6557888601518255948401946001909101908401611b46565b5085821015611b835787850151600019600388901b60f8161c191681555b5050505050600190811b0190555056fea2646970667358221220a23fb3c116a4000fb821d3dfe639db88550da49a1a553206384e65ec44b1e75e64736f6c63430008190033","linkReferences":{}},"methodIdentifiers":{"assignDriverToJobId(address,bytes32)":"47d2dd37","assignJobToBox(bytes32,uint256)":"f31e2594","boxActivate(address,uint256)":"39173b85","customerHandOff(address,bytes32)":"9b21e582","customerToJobId(address,uint256)":"75afd241","driverHandOn(address,bytes32)":"5492222e","driverToJobId(address,uint256)":"41f20c7c","generateReward(bytes32,address)":"9fa3882f","handOff(address,address,bytes32)":"5f4db54e","handOn(address,address,bytes32)":"210ff84d","jobCreation(address,address,((string,string),(string,string),string,string),uint256,uint256)":"d2a7ad13","jobIdCounter()":"0f5a11ca","jobIdToJourney(bytes32)":"e0239455","numberOfJobsAssigned(address)":"30114af5","numberOfJobsCreatedForCustomer(address)":"daf0b2c8","numberOfJobsCreatedForReceiver(address)":"91806ae0","numberToJobID(uint256)":"2ec31482","packageSign(address,address,bytes32)":"e004439c","receiverToJobId(address,uint256)":"575439bb","subJourneys(uint256)":"c65af93d"},"id":28}