{
  "_format": "hh-sol-artifact-1",
  "contractName": "Aura",
  "sourceName": "contracts/Aura.sol",
  "abi": [
    {
      "inputs": [],
      "stateMutability": "nonpayable",
      "type": "constructor"
    },
    {
      "anonymous": false,
      "inputs": [
        {
          "indexed": true,
          "internalType": "address",
          "name": "owner",
          "type": "address"
        },
        {
          "indexed": true,
          "internalType": "address",
          "name": "spender",
          "type": "address"
        },
        {
          "indexed": false,
          "internalType": "uint256",
          "name": "value",
          "type": "uint256"
        }
      ],
      "name": "Approval",
      "type": "event"
    },
    {
      "anonymous": false,
      "inputs": [
        {
          "indexed": true,
          "internalType": "address",
          "name": "from",
          "type": "address"
        },
        {
          "indexed": true,
          "internalType": "address",
          "name": "to",
          "type": "address"
        },
        {
          "indexed": false,
          "internalType": "uint256",
          "name": "value",
          "type": "uint256"
        }
      ],
      "name": "Transfer",
      "type": "event"
    },
    {
      "inputs": [],
      "name": "_deployer",
      "outputs": [
        {
          "internalType": "address",
          "name": "",
          "type": "address"
        }
      ],
      "stateMutability": "view",
      "type": "function"
    },
    {
      "inputs": [
        {
          "internalType": "address",
          "name": "owner",
          "type": "address"
        },
        {
          "internalType": "address",
          "name": "spender",
          "type": "address"
        }
      ],
      "name": "allowance",
      "outputs": [
        {
          "internalType": "uint256",
          "name": "",
          "type": "uint256"
        }
      ],
      "stateMutability": "view",
      "type": "function"
    },
    {
      "inputs": [
        {
          "internalType": "address",
          "name": "spender",
          "type": "address"
        },
        {
          "internalType": "uint256",
          "name": "amount",
          "type": "uint256"
        }
      ],
      "name": "approve",
      "outputs": [
        {
          "internalType": "bool",
          "name": "",
          "type": "bool"
        }
      ],
      "stateMutability": "nonpayable",
      "type": "function"
    },
    {
      "inputs": [
        {
          "internalType": "address",
          "name": "account",
          "type": "address"
        }
      ],
      "name": "balanceOf",
      "outputs": [
        {
          "internalType": "uint256",
          "name": "",
          "type": "uint256"
        }
      ],
      "stateMutability": "view",
      "type": "function"
    },
    {
      "inputs": [],
      "name": "decimals",
      "outputs": [
        {
          "internalType": "uint8",
          "name": "",
          "type": "uint8"
        }
      ],
      "stateMutability": "view",
      "type": "function"
    },
    {
      "inputs": [
        {
          "internalType": "address",
          "name": "spender",
          "type": "address"
        },
        {
          "internalType": "uint256",
          "name": "subtractedValue",
          "type": "uint256"
        }
      ],
      "name": "decreaseAllowance",
      "outputs": [
        {
          "internalType": "bool",
          "name": "",
          "type": "bool"
        }
      ],
      "stateMutability": "nonpayable",
      "type": "function"
    },
    {
      "inputs": [
        {
          "internalType": "address",
          "name": "spender",
          "type": "address"
        },
        {
          "internalType": "uint256",
          "name": "addedValue",
          "type": "uint256"
        }
      ],
      "name": "increaseAllowance",
      "outputs": [
        {
          "internalType": "bool",
          "name": "",
          "type": "bool"
        }
      ],
      "stateMutability": "nonpayable",
      "type": "function"
    },
    {
      "inputs": [
        {
          "internalType": "uint256",
          "name": "amount",
          "type": "uint256"
        }
      ],
      "name": "mintTokenToTreasury",
      "outputs": [],
      "stateMutability": "nonpayable",
      "type": "function"
    },
    {
      "inputs": [],
      "name": "name",
      "outputs": [
        {
          "internalType": "string",
          "name": "",
          "type": "string"
        }
      ],
      "stateMutability": "view",
      "type": "function"
    },
    {
      "inputs": [
        {
          "internalType": "address",
          "name": "treasuryAddress",
          "type": "address"
        }
      ],
      "name": "setTreasuryAddress",
      "outputs": [],
      "stateMutability": "nonpayable",
      "type": "function"
    },
    {
      "inputs": [],
      "name": "symbol",
      "outputs": [
        {
          "internalType": "string",
          "name": "",
          "type": "string"
        }
      ],
      "stateMutability": "view",
      "type": "function"
    },
    {
      "inputs": [],
      "name": "totalSupply",
      "outputs": [
        {
          "internalType": "uint256",
          "name": "",
          "type": "uint256"
        }
      ],
      "stateMutability": "view",
      "type": "function"
    },
    {
      "inputs": [
        {
          "internalType": "address",
          "name": "to",
          "type": "address"
        },
        {
          "internalType": "uint256",
          "name": "amount",
          "type": "uint256"
        }
      ],
      "name": "transfer",
      "outputs": [
        {
          "internalType": "bool",
          "name": "",
          "type": "bool"
        }
      ],
      "stateMutability": "nonpayable",
      "type": "function"
    },
    {
      "inputs": [
        {
          "internalType": "address",
          "name": "from",
          "type": "address"
        },
        {
          "internalType": "address",
          "name": "to",
          "type": "address"
        },
        {
          "internalType": "uint256",
          "name": "amount",
          "type": "uint256"
        }
      ],
      "name": "transferFrom",
      "outputs": [
        {
          "internalType": "bool",
          "name": "",
          "type": "bool"
        }
      ],
      "stateMutability": "nonpayable",
      "type": "function"
    }
  ],
  "bytecode": "0x60806040526040518060400160405280600481526020017f4175726100000000000000000000000000000000000000000000000000000000815250600390816100489190610331565b506040518060400160405280600481526020017f41555241000000000000000000000000000000000000000000000000000000008152506004908161008d9190610331565b5034801561009a57600080fd5b5033600660006101000a81548173ffffffffffffffffffffffffffffffffffffffff021916908373ffffffffffffffffffffffffffffffffffffffff160217905550610403565b600081519050919050565b7f4e487b7100000000000000000000000000000000000000000000000000000000600052604160045260246000fd5b7f4e487b7100000000000000000000000000000000000000000000000000000000600052602260045260246000fd5b6000600282049050600182168061016257607f821691505b6020821081036101755761017461011b565b5b50919050565b60008190508160005260206000209050919050565b60006020601f8301049050919050565b600082821b905092915050565b6000600883026101dd7fffffffffffffffffffffffffffffffffffffffffffffffffffffffffffffffff826101a0565b6101e786836101a0565b95508019841693508086168417925050509392505050565b6000819050919050565b6000819050919050565b600061022e610229610224846101ff565b610209565b6101ff565b9050919050565b6000819050919050565b61024883610213565b61025c61025482610235565b8484546101ad565b825550505050565b600090565b610271610264565b61027c81848461023f565b505050565b5b818110156102a057610295600082610269565b600181019050610282565b5050565b601f8211156102e5576102b68161017b565b6102bf84610190565b810160208510156102ce578190505b6102e26102da85610190565b830182610281565b50505b505050565b600082821c905092915050565b6000610308600019846008026102ea565b1980831691505092915050565b600061032183836102f7565b9150826002028217905092915050565b61033a826100e1565b67ffffffffffffffff811115610353576103526100ec565b5b61035d825461014a565b6103688282856102a4565b600060209050601f83116001811461039b5760008415610389578287015190505b6103938582610315565b8655506103fb565b601f1984166103a98661017b565b60005b828110156103d1578489015182556001820191506020850194506020810190506103ac565b868310156103ee57848901516103ea601f8916826102f7565b8355505b6001600288020188555050505b505050505050565b6115b9806104126000396000f3fe608060405234801561001057600080fd5b50600436106100ea5760003560e01c80636605bfda1161008c578063a457c2d711610066578063a457c2d71461025f578063a9059cbb1461028f578063d310556b146102bf578063dd62ed3e146102dd576100ea565b80636605bfda146101f557806370a082311461021157806395d89b4114610241576100ea565b806320294888116100c8578063202948881461015b57806323b872dd14610177578063313ce567146101a757806339509351146101c5576100ea565b806306fdde03146100ef578063095ea7b31461010d57806318160ddd1461013d575b600080fd5b6100f761030d565b6040516101049190610d91565b60405180910390f35b61012760048036038101906101229190610e4c565b61039f565b6040516101349190610ea7565b60405180910390f35b6101456103c2565b6040516101529190610ed1565b60405180910390f35b61017560048036038101906101709190610eec565b6103cc565b005b610191600480360381019061018c9190610f19565b6103ec565b60405161019e9190610ea7565b60405180910390f35b6101af61041b565b6040516101bc9190610f88565b60405180910390f35b6101df60048036038101906101da9190610e4c565b610424565b6040516101ec9190610ea7565b60405180910390f35b61020f600480360381019061020a9190610fa3565b61045b565b005b61022b60048036038101906102269190610fa3565b6104ad565b6040516102389190610ed1565b60405180910390f35b6102496104f5565b6040516102569190610d91565b60405180910390f35b61027960048036038101906102749190610e4c565b610587565b6040516102869190610ea7565b60405180910390f35b6102a960048036038101906102a49190610e4c565b6105fe565b6040516102b69190610ea7565b60405180910390f35b6102c7610621565b6040516102d49190610fdf565b60405180910390f35b6102f760048036038101906102f29190610ffa565b610647565b6040516103049190610ed1565b60405180910390f35b60606003805461031c90611069565b80601f016020809104026020016040519081016040528092919081815260200182805461034890611069565b80156103955780601f1061036a57610100808354040283529160200191610395565b820191906000526020600020905b81548152906001019060200180831161037857829003601f168201915b5050505050905090565b6000806103aa6106ce565b90506103b78185856106d6565b600191505092915050565b6000600254905090565b6103e933670de0b6b3a7640000836103e491906110c9565b61089f565b50565b6000806103f76106ce565b90506104048582856109f5565b61040f858585610a81565b60019150509392505050565b60006012905090565b60008061042f6106ce565b90506104508185856104418589610647565b61044b919061110b565b6106d6565b600191505092915050565b600660009054906101000a90505080600560006101000a81548173ffffffffffffffffffffffffffffffffffffffff021916908373ffffffffffffffffffffffffffffffffffffffff16021790555050565b60008060008373ffffffffffffffffffffffffffffffffffffffff1673ffffffffffffffffffffffffffffffffffffffff168152602001908152602001600020549050919050565b60606004805461050490611069565b80601f016020809104026020016040519081016040528092919081815260200182805461053090611069565b801561057d5780601f106105525761010080835404028352916020019161057d565b820191906000526020600020905b81548152906001019060200180831161056057829003601f168201915b5050505050905090565b6000806105926106ce565b905060006105a08286610647565b9050838110156105e5576040517f08c379a00000000000000000000000000000000000000000000000000000000081526004016105dc906111b1565b60405180910390fd5b6105f282868684036106d6565b60019250505092915050565b6000806106096106ce565b9050610616818585610a81565b600191505092915050565b600660009054906101000a900473ffffffffffffffffffffffffffffffffffffffff1681565b6000600160008473ffffffffffffffffffffffffffffffffffffffff1673ffffffffffffffffffffffffffffffffffffffff16815260200190815260200160002060008373ffffffffffffffffffffffffffffffffffffffff1673ffffffffffffffffffffffffffffffffffffffff16815260200190815260200160002054905092915050565b600033905090565b600073ffffffffffffffffffffffffffffffffffffffff168373ffffffffffffffffffffffffffffffffffffffff1603610745576040517f08c379a000000000000000000000000000000000000000000000000000000000815260040161073c90611243565b60405180910390fd5b600073ffffffffffffffffffffffffffffffffffffffff168273ffffffffffffffffffffffffffffffffffffffff16036107b4576040517f08c379a00000000000000000000000000000000000000000000000000000000081526004016107ab906112d5565b60405180910390fd5b80600160008573ffffffffffffffffffffffffffffffffffffffff1673ffffffffffffffffffffffffffffffffffffffff16815260200190815260200160002060008473ffffffffffffffffffffffffffffffffffffffff1673ffffffffffffffffffffffffffffffffffffffff168152602001908152602001600020819055508173ffffffffffffffffffffffffffffffffffffffff168373ffffffffffffffffffffffffffffffffffffffff167f8c5be1e5ebec7d5bd14f71427d1e84f3dd0314c0f7b2291e5b200ac8c7c3b925836040516108929190610ed1565b60405180910390a3505050565b600073ffffffffffffffffffffffffffffffffffffffff168273ffffffffffffffffffffffffffffffffffffffff160361090e576040517f08c379a000000000000000000000000000000000000000000000000000000000815260040161090590611341565b60405180910390fd5b61091a60008383610cf7565b806002600082825461092c919061110b565b92505081905550806000808473ffffffffffffffffffffffffffffffffffffffff1673ffffffffffffffffffffffffffffffffffffffff168152602001908152602001600020600082825401925050819055508173ffffffffffffffffffffffffffffffffffffffff16600073ffffffffffffffffffffffffffffffffffffffff167fddf252ad1be2c89b69c2b068fc378daa952ba7f163c4a11628f55a4df523b3ef836040516109dd9190610ed1565b60405180910390a36109f160008383610cfc565b5050565b6000610a018484610647565b90507fffffffffffffffffffffffffffffffffffffffffffffffffffffffffffffffff8114610a7b5781811015610a6d576040517f08c379a0000000000000000000000000000000000000000000000000000000008152600401610a64906113ad565b60405180910390fd5b610a7a84848484036106d6565b5b50505050565b600073ffffffffffffffffffffffffffffffffffffffff168373ffffffffffffffffffffffffffffffffffffffff1603610af0576040517f08c379a0000000000000000000000000000000000000000000000000000000008152600401610ae79061143f565b60405180910390fd5b600073ffffffffffffffffffffffffffffffffffffffff168273ffffffffffffffffffffffffffffffffffffffff1603610b5f576040517f08c379a0000000000000000000000000000000000000000000000000000000008152600401610b56906114d1565b60405180910390fd5b610b6a838383610cf7565b60008060008573ffffffffffffffffffffffffffffffffffffffff1673ffffffffffffffffffffffffffffffffffffffff16815260200190815260200160002054905081811015610bf0576040517f08c379a0000000000000000000000000000000000000000000000000000000008152600401610be790611563565b60405180910390fd5b8181036000808673ffffffffffffffffffffffffffffffffffffffff1673ffffffffffffffffffffffffffffffffffffffff16815260200190815260200160002081905550816000808573ffffffffffffffffffffffffffffffffffffffff1673ffffffffffffffffffffffffffffffffffffffff168152602001908152602001600020600082825401925050819055508273ffffffffffffffffffffffffffffffffffffffff168473ffffffffffffffffffffffffffffffffffffffff167fddf252ad1be2c89b69c2b068fc378daa952ba7f163c4a11628f55a4df523b3ef84604051610cde9190610ed1565b60405180910390a3610cf1848484610cfc565b50505050565b505050565b505050565b600081519050919050565b600082825260208201905092915050565b60005b83811015610d3b578082015181840152602081019050610d20565b60008484015250505050565b6000601f19601f8301169050919050565b6000610d6382610d01565b610d6d8185610d0c565b9350610d7d818560208601610d1d565b610d8681610d47565b840191505092915050565b60006020820190508181036000830152610dab8184610d58565b905092915050565b600080fd5b600073ffffffffffffffffffffffffffffffffffffffff82169050919050565b6000610de382610db8565b9050919050565b610df381610dd8565b8114610dfe57600080fd5b50565b600081359050610e1081610dea565b92915050565b6000819050919050565b610e2981610e16565b8114610e3457600080fd5b50565b600081359050610e4681610e20565b92915050565b60008060408385031215610e6357610e62610db3565b5b6000610e7185828601610e01565b9250506020610e8285828601610e37565b9150509250929050565b60008115159050919050565b610ea181610e8c565b82525050565b6000602082019050610ebc6000830184610e98565b92915050565b610ecb81610e16565b82525050565b6000602082019050610ee66000830184610ec2565b92915050565b600060208284031215610f0257610f01610db3565b5b6000610f1084828501610e37565b91505092915050565b600080600060608486031215610f3257610f31610db3565b5b6000610f4086828701610e01565b9350506020610f5186828701610e01565b9250506040610f6286828701610e37565b9150509250925092565b600060ff82169050919050565b610f8281610f6c565b82525050565b6000602082019050610f9d6000830184610f79565b92915050565b600060208284031215610fb957610fb8610db3565b5b6000610fc784828501610e01565b91505092915050565b610fd981610dd8565b82525050565b6000602082019050610ff46000830184610fd0565b92915050565b6000806040838503121561101157611010610db3565b5b600061101f85828601610e01565b925050602061103085828601610e01565b9150509250929050565b7f4e487b7100000000000000000000000000000000000000000000000000000000600052602260045260246000fd5b6000600282049050600182168061108157607f821691505b6020821081036110945761109361103a565b5b50919050565b7f4e487b7100000000000000000000000000000000000000000000000000000000600052601160045260246000fd5b60006110d482610e16565b91506110df83610e16565b92508282026110ed81610e16565b915082820484148315176111045761110361109a565b5b5092915050565b600061111682610e16565b915061112183610e16565b92508282019050808211156111395761113861109a565b5b92915050565b7f45524332303a2064656372656173656420616c6c6f77616e63652062656c6f7760008201527f207a65726f000000000000000000000000000000000000000000000000000000602082015250565b600061119b602583610d0c565b91506111a68261113f565b604082019050919050565b600060208201905081810360008301526111ca8161118e565b9050919050565b7f45524332303a20617070726f76652066726f6d20746865207a65726f2061646460008201527f7265737300000000000000000000000000000000000000000000000000000000602082015250565b600061122d602483610d0c565b9150611238826111d1565b604082019050919050565b6000602082019050818103600083015261125c81611220565b9050919050565b7f45524332303a20617070726f766520746f20746865207a65726f20616464726560008201527f7373000000000000000000000000000000000000000000000000000000000000602082015250565b60006112bf602283610d0c565b91506112ca82611263565b604082019050919050565b600060208201905081810360008301526112ee816112b2565b9050919050565b7f45524332303a206d696e7420746f20746865207a65726f206164647265737300600082015250565b600061132b601f83610d0c565b9150611336826112f5565b602082019050919050565b6000602082019050818103600083015261135a8161131e565b9050919050565b7f45524332303a20696e73756666696369656e7420616c6c6f77616e6365000000600082015250565b6000611397601d83610d0c565b91506113a282611361565b602082019050919050565b600060208201905081810360008301526113c68161138a565b9050919050565b7f45524332303a207472616e736665722066726f6d20746865207a65726f20616460008201527f6472657373000000000000000000000000000000000000000000000000000000602082015250565b6000611429602583610d0c565b9150611434826113cd565b604082019050919050565b600060208201905081810360008301526114588161141c565b9050919050565b7f45524332303a207472616e7366657220746f20746865207a65726f206164647260008201527f6573730000000000000000000000000000000000000000000000000000000000602082015250565b60006114bb602383610d0c565b91506114c68261145f565b604082019050919050565b600060208201905081810360008301526114ea816114ae565b9050919050565b7f45524332303a207472616e7366657220616d6f756e742065786365656473206260008201527f616c616e63650000000000000000000000000000000000000000000000000000602082015250565b600061154d602683610d0c565b9150611558826114f1565b604082019050919050565b6000602082019050818103600083015261157c81611540565b905091905056fea264697066735822122045bfbdccdceba47c6b143bf1335e29d3e9e7f56f5fcd3cfa5cd41076b700accc64736f6c634300081b0033",
  "linkReferences": {},
  "deployedLinkReferences": {}
}